:020000040000fa
:080000000001040000000000f3
:020000040000fa
:040008004e020000a4
:020000040000fa
:04000c004e020000a0
:020000040000fa
:040010004e0200009c
:020000040000fa
:040014004e02000098
:020000040000fa
:040018004e02000094
:020000040000fa
:04001c004e02000090
:020000040000fa
:040020004e0200008c
:020000040000fa
:040024004e02000088
:020000040000fa
:040028004e02000084
:020000040000fa
:04002c004e02000080
:020000040000fa
:040030004e0200007c
:020000040000fa
:0400340008020000be
:020000040000fa
:040038004e02000074
:020000040000fa
:04003c004e02000070
:020000040000fa
:040040004e0200006c
:020000040000fa
:040044004e02000068
:020000040000fa
:040048004e02000064
:020000040000fa
:04004c004e02000060
:020000040000fa
:040050004e0200005c
:020000040000fa
:040054004e02000058
:020000040000fa
:040058004e02000054
:020000040000fa
:04005c004e02000050
:020000040000fa
:040060004e0200004c
:020000040000fa
:040064004e02000048
:020000040000fa
:040068004e02000044
:020000040000fa
:04006c004e02000040
:020000040000fa
:040070004e0200003c
:020000040000fa
:040074004e02000038
:020000040000fa
:040078004e02000034
:020000040000fa
:04007c004e02000030
:020000040000fa
:040080004e0200002c
:020000040000fa
:040084004e02000028
:020000040000fa
:040088004e02000024
:020000040000fa
:04008c004e02000020
:020000040000fa
:040090004e0200001c
:020000040000fa
:040094004e02000018
:020000040000fa
:040098004e02000014
:020000040000fa
:04009c004e02000010
:020000040000fa
:0400a0004e0200000c
:020000040000fa
:0400a4004e02000008
:020000040000fa
:0400a8004e02000004
:020000040000fa
:0400ac004e02000000
:020000040000fa
:0400b0004e020000fc
:020000040000fa
:0400b4004e020000f8
:020000040000fa
:0400b8004e020000f4
:020000040000fa
:0400bc004e020000f0
:020000040000fa
:0400c0004e020000ec
:020000040000fa
:0400c4004e020000e8
:020000040000fa
:0400c8004e020000e4
:020000040000fa
:0400cc004e020000e0
:020000040000fa
:0400d0004e020000dc
:020000040000fa
:0400d4004e020000d8
:020000040000fa
:0400d8004e020000d4
:020000040000fa
:0400dc004e020000d0
:020000040000fa
:0400e0004e020000cc
:020000040000fa
:0400e4004e020000c8
:020000040000fa
:0400e8004e020000c4
:020000040000fa
:0400ec004e020000c0
:020000040000fa
:0400f0004e020000bc
:020000040000fa
:0400f4004e020000b8
:020000040000fa
:0400f8004e020000b4
:020000040000fa
:0400fc004e020000b0
:020000040000fa
:040100004e020000ab
:020000040000fa
:040104004e020000a7
:020000040000fa
:040108004e020000a3
:020000040000fa
:04010c004e0200009f
:020000040000fa
:040110004e0200009b
:020000040000fa
:040114004e02000097
:020000040000fa
:040118004e02000093
:020000040000fa
:04011c004e0200008f
:020000040000fa
:040120004e0200008b
:020000040000fa
:040124004e02000087
:020000040000fa
:040128004e02000083
:020000040000fa
:04012c004e0200007f
:020000040000fa
:040130004e0200007b
:020000040000fa
:040134004e02000077
:020000040000fa
:040138004e02000073
:020000040000fa
:04013c004e0200006f
:020000040000fa
:040140004e0200006b
:020000040000fa
:040144004e02000067
:020000040000fa
:040148004e02000063
:020000040000fa
:04014c004e0200005f
:020000040000fa
:040150004e0200005b
:020000040000fa
:040154004e02000057
:020000040000fa
:040158004e02000053
:020000040000fa
:04015c004e0200004f
:020000040000fa
:040160004e0200004b
:020000040000fa
:040164004e02000047
:020000040000fa
:040168004e02000043
:020000040000fa
:04016c004e0200003f
:020000040000fa
:040170004e0200003b
:020000040000fa
:040174004e02000037
:020000040000fa
:040178004e02000033
:020000040000fa
:04017c004e0200002f
:020000040000fa
:040180004e0200002b
:020000040000fa
:040184004e02000027
:020000040000fa
:040188004e02000023
:020000040000fa
:04018c004e0200001f
:020000040000fa
:040190004e0200001b
:020000040000fa
:040194004e02000017
:020000040000fa
:040198004e02000013
:020000040000fa
:04019c004e0200000f
:020000040000fa
:0401a0004e0200000b
:020000040000fa
:0401a4004e02000007
:020000040000fa
:0401a8004e02000003
:020000040000fa
:0401ac004e020000ff
:020000040000fa
:0401b0004e020000fb
:020000040000fa
:0401b4004e020000f7
:020000040000fa
:0401b8004e020000f3
:020000040000fa
:0401bc004e020000ef
:020000040000fa
:0401c0004e020000eb
:020000040000fa
:0401c4004e020000e7
:020000040000fa
:0401c8004e020000e3
:020000040000fa
:0401cc004e020000df
:020000040000fa
:0401d0004e020000db
:020000040000fa
:0401d4004e020000d7
:020000040000fa
:0401d8004e020000d3
:020000040000fa
:0401dc004e020000cf
:020000040000fa
:0401e0004e020000cb
:020000040000fa
:0401e4004e020000c7
:020000040000fa
:0401e8004e020000c3
:020000040000fa
:0401ec004e020000bf
:020000040000fa
:0401f0004e020000bb
:020000040000fa
:0401f4004e020000b7
:020000040000fa
:0401f8004e020000b3
:020000040000fa
:0401fc004e020000af
:020000040000fa
:100200006f8220000e7f24000e0188000000000095
:10021000000020000000e000020032000001200089
:1002200020028800140007009e0007000000e00084
:1002300003003a00a09d20000100200002003700ca
:100240000000200001002000810f7000010032003a
:1002500014000700000020000000e000020032004f
:100260000000020000000000c003020000000000c7
:100270000040da000000fe004440a90060002000b9
:100280000000e00003003200002020009001880000
:100290004440a800000006008a1f78008b1f7800e9
:1002a00000000600a1028800800478000000eb0036
:1002b0001f003700e284440054a0b4009905ba003e
:1002c000e284440054a0b4009906ba00e2844400d9
:1002d00054a0b4000006eb00476fde00fd07b2003b
:1002e000ae018800636ce10003003a00eaff0700fa
:1002f0000000eb000e003700606ce10008003a00df
:10030000004deb000a05e800020039003420ec0043
:100310000af0a0008b05e900f9ff3e000400370059
:100320006168e100010032000086eb000b0007006d
:1003300019c7ba001905ba000e04e00003003a001c
:100340000a00e000dbff3a0000000600fe07b200f2
:10035000ae0288008a047800f5ff37000cd0a300b5
:10036000e20f4d001c00390089027800354dba00bb
:100370000a05e800020039003420ec000af0a00071
:100380008b05e9000f003200254dba000a05e80090
:10039000020039003420ec000af0a0008b05e900cf
:1003a000080032000c00e0000600320015cdba0053
:1003b0000a05e800020039003420ec000af0a00031
:1003c0008b05e9008984e80054a0b4000b00e0002c
:1003d000e2ff3a00000006009902ba00055d7800cd
:1003e0008b05e900f7ff3200c82ade00055d7800c2
:1003f0008b05e900f3ff32000c00e000f1ff320052
:1004000019ddba00eeff3700aa0704000000000063
:100410003600f800809fbe00829fbe00849fbe0011
:10042000869fbe000000fa00204080000000e80027
:100430002040880021408000f00f2000808f500075
:1004400006003600004080000000e000020032009c
:1004500000408000000001000428ef0050822000ce
:10046000104078008040e800508220000148780069
:100470004082200011c0b300014878008860a900c4
:100480000080fa004f03be004f02be004f01be00c5
:100490004f00be003600f900004006000040da00c0
:1004a0000000fe0000000500889fbe008a9fbe007d
:1004b000800478000200e0005a0032000140780019
:1004c000814c780082814400f1f99f00e20f5100d5
:1004d0005400360091449800a1449800e1f99f002f
:1004e000d1f99f00e60f51004e003600b14498004c
:1004f000c1f99f00e80f51004a0036000905ea00e3
:10050000630565000a8444000a055100c1ff2f00fd
:10051000010565000080fb008000eb001210200048
:10052000131020008d000700008cbe000a0144005b
:1005300060b99f0071b99f00e80f5500390036007f
:100540002004980031049800400498005104980059
:1005500020b99f0031b99f0040b99f0051b99f0059
:10056000f80f55002f0036006004980071049800c1
:10057000000c9800110c9800200c9800310c980089
:10058000400c9800510c980020b19f0031b19f00a1
:1005900040b19f0051b19f0060b19f0071b19f00b9
:1005a00000b99f0011b99f00640164007801410007
:1005b00002044400020555006011b8000203be00a9
:1005c0000002be000403be006022b80000007200fa
:1005d0008180720002017300838173000f00370075
:1005e00008027800009abe00029abe00009abe007f
:1005f0000292be00000c9800110c9800220c98008a
:10060000330c9800400c9800510c9800620c980034
:10061000730c98000a02b1000802b000ff0f5500e9
:10062000efff3e00090078004f05be004f04be00fa
:100630000000060080007800040037003104e0006c
:1006400002003a000000510000000600010178009d
:100650000108a300f9ff3a00810178003101780018
:10066000f4ef2f00020242000281ea000201620060
:100670000408280004016100f7ff320083007800bd
:10068000010178003104e000fdff3a000000510054
:1006900000000600810178000002780030417800f7
:1006a000b14f510002003a000204e000f9ff3a00a5
:1006b0009480fb001380fb000080500000000600c7
:1006c000881f780000047800080078000300070005
:1006d000080078004f04780000000600010178004f
:1006e00080017800008268000408a3000500320041
:1006f0001300370032407800805978000004e00091
:1007000014003200030278000208a300f9ff3a0047
:100710000300780001003700031878008200780099
:10072000b2017800f5ef2f00838242000382ea00d5
:10073000048262000508280005026200f6ff32000c
:100740000002780031417800025878000204e0008d
:10075000fbff3a000400780000000600020ab9001e
:10076000001bb9000200b800810042008100430074
:04077000000006007f
:020000040000fa
:0c07740000000000000000000000000079
:020000040000fa
:100780001200fa00bd0207000040eb00004f7800a5
:1007900050532300515323000e81e8000089be000e
:1007a0008040eb006600470001487800a13b28002c
:1007b0006700470011487800e8004700030009007f
:1007c0008058eb006000b8006c0147000089be0053
:1007d0008040eb0070004700014878006700470048
:1007e000520020008000eb002fff0700ef01070000
:1007f0001e80fb00e10f50004a003200e10f500064
:1008000003003c000000e00006003200f200370068
:10081000e20f500075003200e30f5000ae003200ce
:10082000ed003700ee0007008e00e80080487800f9
:100830000e00e80010407800e14f40002a0032002e
:100840000e00e8009040780000c3b30080cf500055
:1008500006003a0067004700520020008000eb00cd
:1008600011ff07007a86a8001f0037000e00e8007d
:100870009040780030c2b30080cf50000d003a00a5
:100880008e80e8006700470082ff07000000e0005c
:1008900006003a0010c0b300004f78008ea6a800f2
:1008a0004006200048020700cc0037007a86a900e5
:1008b0000d003700670047005eff0700000047009b
:1008c000670040008e00e800114878000100370002
:1008d0008e66a900c200070031022000810f50007f
:1008e000fbff3a008e66a800e001200036020700f8
:1008f000703480004500de00614060000004a2000a
:10090000614060000080fb00610060004500dd0088
:10091000713480000150a100010070007034880023
:10092000ae003700ae0007008e00e8008048780077
:100930000e00e80010407800e14f40001f00320038
:100940000e00e8009040780030c2b30080cf500025
:100950000a003a0067004700520020008000eb00c8
:10096000d1fe07008e86a800400620001602070070
:100970000040eb00004f7800980037000e00e800c0
:100980009040780000c3b30080cf500009003a00c7
:100990006c004700520020008000eb00c2fe070000
:1009a0008e86a800400620000702070020c0b30082
:1009b000004f7800e001200003020700703480003f
:1009c0004400de00614060000004a200614060005d
:1009d0000080fb00610060004400dd007134800095
:1009e0000140a10001007000703488007c00070005
:1009f0008e00e800804878000e00e8001040780083
:100a0000e14f4000340032000e00e80090407800d2
:100a100000c3b30080cf500006003a008e66a800e5
:100a200010c0b300004f780040062000e601070028
:100a30006a0037000e00e8009040780030c2b30032
:100a400080cf500009003a00ec0047000e80e8001b
:100a50001bff07008e66a80010c0b300004f78008f
:100a600040062000d80107005c0037006c004700fa
:100a7000f0fe0700000047006c0040008e00e80018
:100a800011487800010037008e86a9005400070045
:100a9000a1022000810f5000fbff3a008e86a800c3
:100aa000e0012000c8010700703480004300de0030
:100ab000614060000004a200614060000080fb0013
:100ac000610060004300dd00713480000130a1004e
:100ad0000100700070348800410007008e00e800bb
:100ae000804878000e00e80010407800e14f400098
:100af0002a0032000e00e8009040780000c3b300e6
:100b000080cf500006003a006700470052002000e6
:100b10008000eb0064fe07008e86a8001f003700ef
:100b20000e00e8009040780030c2b30080cf500043
:100b30000d003a008e80e80067004700d5fe0700f0
:100b40000000e00006003a0010c0b300004f78003b
:100b50007a86a800400620009b0107001f0037008e
:100b60008e86a9000d00370067004700b1fe070020
:100b700000004700670040008e00e8001148780040
:100b8000010037008e66a900150007003102200021
:100b9000810f5000fbff3a008e66a800e0012000a4
:100ba00089010700d03380004400de00614060000e
:100bb0000004a200614060000080fb006100600052
:100bc0004400dd00d13380000140a100010070002d
:100bd000d0338800010037000000000004ff370018
:100be0000800fa007a26a9008081200011c0b30015
:100bf00001487800c03380004e00de006140600094
:100c000080407800908120000148780060348000a6
:100c10004600de006140600080407800a081200036
:100c2000014878007a26a8007a06a900c03380001f
:100c30004f00de000040780080407800b081200046
:100c400001487800c03380004e00de006140600043
:100c500080407800c0812000014878006034800026
:100c60004600de006140600080407800d0812000b6
:100c7000014878007a06a8006626a900c0338000e3
:100c80004f00de000040780080407800e0812000c6
:100c900001487800c03380004e00de0061406000f3
:100ca00080407800f08120000148780060348000a6
:100cb0004600de0061406000804078000082200035
:100cc000014878006626a8006606a900c0338000a7
:100cd0004f00de0000407800804078001082200045
:100ce00001487800c03380004e00de0061406000a3
:100cf0008040780020822000014878006034800025
:100d00004600de00614060008040780030822000b4
:100d1000014878006606a8000628ef000000eb00f6
:100d2000000f78001b0037008000eb000e80e80009
:100d300001087800120037001e0078006300b90037
:100d4000000078008e80e8009100780001004000eb
:100d50008181200000804000104078000080fb006e
:100d60003140800001004000304088000e80e800e3
:100d7000100078008000e8000e80e800010878008c
:100d80000e80e80010007800e20f5000eaff340007
:100d90001e0fe8001e007800e30f5000e2ff340051
:100da00030408000eb0f50003b003a008000eb0029
:100db0006400470001087800260037008000eb003f
:100dc00066004700010878001900370064004700fa
:100dd000100078006300b90000007800e6004700ca
:100de00091007800010040008181200000804000d7
:100df000104078000004e00008003a00640047005a
:100e0000100078000040780008e8b700660047004e
:100e1000100078000040780009e8b700660047003d
:100e2000100078008000e8006600470001087800a4
:100e30006600470010007800e20f5000e3ff340026
:100e400064004700100078008000e800640047005c
:100e5000010878006400470010007800e30f50009c
:100e6000d6ff340008c8bf000080fb00918020003e
:100e7000914078000181fb006300b9000000780018
:100e800002004000c1802000008040001040780037
:100e90000000fb00010037000080eb000080fa003a
:100ea000000006000000fa009021ef00f0ff230090
:100eb000900c880000002800a00c880000408000f2
:100ec0000000e00002003a00a07a20002f00070096
:100ed0008860a9009860a800408220008040eb0054
:100ee000014878000080fa00000006000200fa00c5
:100ef000000f78009e007800910c8800408220004e
:100f00008040eb00014878000080fa0000000600f5
:100f10000000fa00900c80000080fa00000006003b
:100f20000200fa00000f78009e007800810c880013
:100f3000408220008040eb00014878000080fa00e9
:100f4000000006000000fa00800c80000080fa001b
:100f5000000006000000fa00770007000004e0002f
:100f60000800320070000700104088001040800028
:100f7000ea0f5000020036007ac6a80001003700d0
:100f80007ac6a9000080fa00000006000200fa00fc
:100f9000000f78009860a9009e007800014088004a
:100fa0009860a8000080fa00000006000000fa0027
:100fb000408220008040eb00014878009860a80043
:100fc00095e1a8000080fa00000006000000fa0089
:100fd00095e1a9009860a9000080fa0000000600d1
:100fe0000200fa0040822000104f78001e40780076
:100ff0000004e00003003200408220008040eb004b
:10100000014878001e4078000080fa0000000600c9
:101010000000fa0050822000104078000080fb00a1
:101020000080fa00000006000000fa005082200054
:101030008040eb00014878000080fa0000000600c4
:101040000000fa0040072800303a880000402000e5
:10105000403a880000f02900503a88004c27ef0001
:101060004e27ef0000102000803a88005a27ef003a
:10107000f422ef00403a80004200de007f40600032
:101080000ae8b7000080fa00000006000000fa003d
:101090004627a8000080fa00000006000000fa00c1
:1010a0004627a9000080fa00000006000600fa00aa
:1010b000e400470080087800217120000e80e800dd
:1010c000010878000000eb00000f78000f003700e7
:1010d0001e00780000004000e40047009100780006
:1010e000008040008e80e800910078009100780038
:1010f000010878000e80e800100078008080e80089
:101100000e80e800010878001e0fe8000ac8bf0042
:101110000080fb009e0f5000edff3d001e00780098
:101120000080fa00000006000000fa0090388000fd
:101130000080fa00000006000000fa00303a80004b
:1011400000407800614060000080fb0000f0a700d4
:101150000000ea000000ea004f00de0000407800d6
:101160000080fa00000006000200fa00000f78007c
:101170009e007800613a88000080fa0000000600b6
:101180000200fa00000f78001e007800f6ff07004a
:10119000beff0700c1ff070000000000e6ff0700d8
:1011a0000004a2000004e000fcff3a00deff07009c
:1011b0000080fa00000006000000fa0089a0a900e3
:1011c0000080fa00000006000800fa00e600470070
:1011d000800878000000eb00000f78002000370046
:1011e0008000eb000e80e800010878001500370051
:1011f0008000eb006400470001087800060037001b
:101200000000000064004700100078008000e80043
:1012100064004700010878006400470090007800ef
:101220006600470010007800808f5000f4ff350002
:101230000e80e800100078008000e8000e80e800d2
:10124000010878000e80e8009000780066004700f2
:1012500010007800808f5000e5ff35001e0fe80079
:1012600066004700100078009e007800808f5000d4
:10127000dbff35000080fa00000006000000fa00e5
:101280002a00070062000700050007006cff070046
:1012900004ff0700400007000080fa00000006007d
:1012a0000000fa0000002300100888000621ef006b
:1012b0006821ef006a21ef000821ef000070200094
:1012c000500888000c21ef000e21ef007821ef007c
:1012d0007a21ef007c21ef007e21ef008021ef00da
:1012e0008221ef008421ef008621ef000001eb0056
:1012f00080072000a10920001310200080497800f9
:1013000081497800824978000001eb0060042000e8
:101310007105200003102000804978008149780081
:10132000824978000080fa00000006000000fa0000
:101330006626ef007a26ef008e26ef0040f92700a0
:1013400010338800c0fa2f00b0338800703c2000b2
:10135000503488007426ef008826ef009c26ef00aa
:101360007226ef008626ef009a26ef006826ef002f
:101370007c26ef009026ef004000200050338800cc
:10138000c0202300f03388007000200090348800d3
:101390000080fa00000006000000fa008ea6a800f7
:1013a0008e66a8007a86a8008e86a8000080fa00c3
:0413b0000000060033
:020000040000fa
:1013b4000a08000002000000800000002408000069
:1013c4000200000080000000000800000600000089
:1013d400800000000c0800000c00000082000000e7
:1013e4003132330034353600373839002a3023009f
:1013f400180800000c00000080000000060800002f
:0c14040004000000800000000000000058
:020000040000fa
:101410000000fa0041058000f0ff28000080600015
:1014200000c0a000400588000080fa00000006000f
:020000040000fa
:020000040002f8
:04be0000ffffff0041
:020000040000fa
:020000040002f8
:04be2000ffffff0021
:020000040000fa
:020000040002f8
:04be300078ffff0098
:020000040000fa
:020000040002f8
:04be3800b7ffff0051
:020000040000fa
:020000040002f8
:04be40009fffff0061
:020000040000fa
:020000040002f8
:04be4800ffffff00f9
:020000040000fa
:020000040002f8
:04be5000deffff0012
:020000040000fa
:020000040002f8
:04be5800ffffff00e9
:00000001FF
